0000283029     0000283029     ACESSORIO DIFUSOR CORE MAESTRO P/EQUIP.SALA OPERACOES CONSOLE CORE                                  23032017D000000000000000000000000000000000000000000000000000000000000000   UN  0000100000000000000DSTRYKER             000028302920000000080080005430284       03122017                   NN        IT5400060000                                                                                          NN
0000283419     0000283419     ACIDO CITRICO A 20% DESINCRUSTANTE P/MAQUINA HEMODIALISE 5LT                                        14032017F000004950000000000000000000000000000000000000000000000000000000GL LTS 0000500000000000000ATAUROVITA           0000283419300000000000NOTIFICACAO                                  NN        MCBELL CITRIC 20                                                                                      NN
0000283420     0000283420     ACIDO CITRICO A 40% DESINCRUSTANTE P/MAQUINA HEMODIALISE 5LT                                        14032017F000004950000000000000000000000000000000000000000000000000000000GL LTS 0000500000000000000ATAUROVITA           0000283420300000000000NOTIFICACAO                                  NN        MCBELL CITRIC 40                                                                                      NN
0000283421     0000283421     ACIDO CITRICO A 50% DESINCRUSTANTE P/MAQUINA HEMODIALISE 5LT                                        14032017F000004950000000000000000000000000000000000000000000000000000000GL LTS 0000500000000000000ATAUROVITA           0000283421300000000000NOTIFICACAO                                  NN        MCBELL CITRIC 50                                                                                      NN
0000282635     0000282635     ACIDO PARACETICO(10MINUTOS) PERAC 2000 1000ML                                                       21022017F000001000000000000000000000000000000000000000000000000000000000FR ML  0100000000000000000ACOSMODERMA          0000282635300000000000346280043         28022021                   NN        MC                                                                                                    NN
0000282636     0000282636     ACIDO PARACETICO(10MINUTOS) PERAC 2000 5000ML                                                       21022017F000004800000000000000000000000000000000000000000000000000000000BBNML  0500000000000000000ACOSMODERMA          0000282636300000000000346280043         28022021                   NN        MC                                                                                                    NN
0000283410     0000283410     ACIDO PERACETICO A 00,2% P/HEMODIALISE 05LT                                                         14032017F000005620000000000000000000000000000000000000000000000000000000GL LTS 0000500000000000000ATAUROVITA           0000283410300000000000326300016         31072022                   NN        MCPEROXLIFE                                                                                           NN
0000283405     0000283405     ACIDO PERACETICO A 02,0% P/HEMODIALISE 05LT                                                         14032017F000002340000000000000000000000000000000000000000000000000000000GL LTS 0000500000000000000ATAUROVITA           0000283405300000000000326300017         17032019                   NN        MCP20                                                                                                 NN
0000283406     0000283406     ACIDO PERACETICO A 02,0% P/HEMODIALISE 20LT                                                         14032017F000009170000000000000000000000000000000000000000000000000000000GL LTS 0002000000000000000ATAUROVITA           0000283406300000000000326300017         17032019                   NN        MCP20                                                                                                 NN
0000283407     0000283407     ACIDO PERACETICO A 03,5% P/HEMODIALISE 05LT                                                         14032017F000002350000000000000000000000000000000000000000000000000000000GL LTS 0000500000000000000ATAUROVITA           0000283407300000000000326300014         19052018                   NN        MCP35                                                                                                 NN
0000283403     0000283403     ACIDO PERACETICO A 05,0% P/HEMODIALISE 05LT                                                         14032017F000009900000000000000000000000000000000000000000000000000000000GL LTS 0000500000000000000ATAUROVITA           0000283403300000000000326300015         21022022                   NN        MCP50 IMC                                                                                             NN
0000283402     0000283402     ACIDO PERACETICO A 05,0% P/HEMODIALISE 05LT                                                         14032017F000007800000000000000000000000000000000000000000000000000000000GL LTS 0000500000000000000ATAUROVITA           0000283402300000000000326300011         03032020                   NN        MCP50                                                                                                 NN
0000283404     0000283404     ACIDO PERACETICO A 05,0% P/HEMODIALISE 20LT                                                         14032017F000012000000000000000000000000000000000000000000000000000000000GL LTS 0002000000000000000ATAUROVITA           0000283404300000000000326300011         03032020                   NN        MCP50                                                                                                 NN
0000283408     0000283408     ACIDO PERACETICO A 17,0% P/INDUSTRIA ALIMENTICIA GERAL 05LT                                         14032017F000005400000000000000000000000000000000000000000000000000000000GL LTS 0000500000000000000ATAUROVITA           0000283408300000000000326300009         23112019                   NN        MCP170                                                                                                NN
0000283409     0000283409     ACIDO PERACETICO A 17,0% P/INDUSTRIA ALIMENTICIA GERAL 20LT                                         14032017F000013000000000000000000000000000000000000000000000000000000000GL LTS 0002000000000000000ATAUROVITA           0000283409300000000000326300009         23112019                   NN        MCP170                                                                                                NN
0000279964     0000279964     ADAPTADOR AD-18 P/ACESSORIOS ACIONAMENTO PEDAL(CONEXAO 08MM)                                        29112016F000021562500000000000000000000000000000000000000000000000000000CX UN  0000100000000000000AWEM                 000027996420000000150010247670035       10092019                   NN        BDAD-18                                                                                               NN
0000279965     0000279965     ADAPTADOR AD-19 P/ACESSORIOS 08MM(MACHO 4MM)                                                        29112016F000021562500000000000000000000000000000000000000000000000000000CX UN  0000100000000000000AWEM                 000027996520000000150010247670035       10092019                   NN        BDAD-19                                                                                               NN
0000279966     0000279966     ADAPTADOR AD-20 P/CABO PLACA PADRAO                                                                 29112016F000008193800000000000000000000000000000000000000000000000000000CX UN  0000100000000000000AWEM                 000027996620000000150010247670035       10092019                   NN        BDAD-20                                                                                               NN
0000151035     0000151035     ADAPTADOR EQUIPO CLAVE 13CM C/SPIROS                                                                14042015F000002964900000000000000000000000000000000000000000000000000000   UN  0000100000000000000AMEDCORP             000015103520000000000010312210033       VIGENTE                    NN        MCCH3034                                                                                              NN
0000151039     0000151039     ADAPTADOR EQUIPO CLAVE P/FRASCO MULTIDOSE C/TRAVA SEG.                                              14042015F000001567300000000000000000000000000000000000000000000000000000   UN  0000100000000000000AMEDCORP             000015103920000000000010312210035       VIGENTE                    NN        MCCH-70                                                                                               NN
0000151038     0000151038     ADAPTADOR EQUIPO CLAVE P/FRASCO MULTIDOSE S/TRAVA SEG.                                              14042015F000002373200000000000000000000000000000000000000000000000000000   UN  0000100000000000000AMEDCORP             000015103820000000000010312210035       VIGENTE                    NN        MCCH-51                                                                                               NN
0000250234     0000250234     ADAPTADOR IMERSAO OCUSCAN PXP                                                                       24012017F000032004500000000000000000000000000000000000000000000000000000   UN  0000100000000000000AALCON               0000250234200000001500ISENTO                                       NN        BD2836                                                                                                NN
0000250233     0000250233     ADAPTADOR IMERSAO OCUSCAN/ULTRASCAN                                                                 24012017F000034787500000000000000000000000000000000000000000000000000000   UN  0000100000000000000AALCON               0000250233200000001500ISENTO                                       NN        BD2835                                                                                                NN
0000153428     0000153428     ADAPTADOR LUER P/ESCALPE ESTERIL VACUTAINER                                                         31032011F000000019200000000000000000000000000000000000000000000000000000   UN  0000100000000000000ABD PAS              000015342820000000080010033430348       VIGENTE                    NN        MC367290                                                                                              NN
0000273773     0000273773     AGULHA COLETA MULTIPLA 25X7MM                                                                       12072016F000000648000000000000000000000000000000000000000000000000000000PCTUN  0000100000000000000AINJEX               000027377320000000080010160610029       VIGENTE                    NN        MC                                                                                                    NN
0000273774     0000273774     AGULHA COLETA MULTIPLA 25X8MM                                                                       12072016F000000648000000000000000000000000000000000000000000000000000000PCTUN  0000100000000000000AINJEX               000027377420000000080010160610029       VIGENTE                    NN        MC                                                                                                    NN
0000138332     0000138332     AGULHA P/BIOPSIA HEPATICA HEPACUT 16GX09CM                                                          14032017F000002817800000000000000000000000000000000000000000000000000000   UN  0000100000000000000ABMR MEDICAL         000013833220000000000080299880039       VIGENTE                    NN        MEHPC1609                                                                                             NN
0000138333     0000138333     AGULHA P/BIOPSIA HEPATICA HEPACUT 17GX09CM                                                          14032017F000002817800000000000000000000000000000000000000000000000000000   UN  0000100000000000000ABMR MEDICAL         000013833320000000000080299880039       VIGENTE                    NN        MEHPC1709                                                                                             NN
0000138335     0000138335     AGULHA P/BIOPSIA HEPATICA HEPACUT 18GX09CM                                                          14032017F000002817800000000000000000000000000000000000000000000000000000   UN  0000100000000000000ABMR MEDICAL         000013833520000000000080299880039       VIGENTE                    NN        MEHPC1809                                                                                             NN
0000241961     0000241961     AGULHA P/PUNCAO 21GA                                                                                16032016F000000720000000000000000000000000000000000000000000000000000000   UN  0000100000000000000AMEDCORP             000024196120000000000010312210027       VIGENTE                    NN        MCMC217                                                                                               NN
0000272460     0000272460     ALCA P/POLIPECTOMIA AUTOCLAVAVEL TP.CRESCENTE 2,2X1700X05MM                                         23062016F000017631900000000000000000000000000000000000000000000000000000CX UN  0000100000000000000ACONCEITOS LOJA      000027246020000000000080393910006       VIGENTE                    NN        ITHF-2317CS5                                                                                          NN
0000272463     0000272463     ALCA P/POLIPECTOMIA AUTOCLAVAVEL TP.CRESCENTE 2,2X1700X10MM                                         23062016F000017631900000000000000000000000000000000000000000000000000000CX UN  0000100000000000000ACONCEITOS LOJA      000027246320000000000080393910006       VIGENTE                    NN        ITHF-2317CS10                                                                                         NN
0000272466     0000272466     ALCA P/POLIPECTOMIA AUTOCLAVAVEL TP.CRESCENTE 2,2X1700X15MM                                         23062016F000017631900000000000000000000000000000000000000000000000000000CX UN  0000100000000000000ACONCEITOS LOJA      000027246620000000000080393910009       VIGENTE                    NN        ITHF-2317CS15                                                                                         NN
0000272467     0000272467     ALCA P/POLIPECTOMIA AUTOCLAVAVEL TP.CRESCENTE 2,2X1700X20MM                                         23062016F000017631900000000000000000000000000000000000000000000000000000CX UN  0000100000000000000ACONCEITOS LOJA      000027246720000000000080393910006       VIGENTE                    NN        ITHF-2317CS20                                                                                         NN
0000272469     0000272469     ALCA P/POLIPECTOMIA AUTOCLAVAVEL TP.CRESCENTE 2,2X1700X30MM                                         23062016F000017631900000000000000000000000000000000000000000000000000000CX UN  0000100000000000000ACONCEITOS LOJA      000027246920000000000080393910009       VIGENTE                    NN        ITHF-2317CS30                                                                                         NN
0000272470     0000272470     ALCA P/POLIPECTOMIA AUTOCLAVAVEL TP.CRESCENTE 2,2X2300X05MM                                         23062016F000017631900000000000000000000000000000000000000000000000000000CX UN  0000100000000000000ACONCEITOS LOJA      000027247020000000000080393910006       VIGENTE                    NN        ITHF-2323CS5                                                                                          NN
0000272474     0000272474     ALCA P/POLIPECTOMIA AUTOCLAVAVEL TP.CRESCENTE 2,2X2300X10MM                                         23062016F000017631900000000000000000000000000000000000000000000000000000CX UN  0000100000000000000ACONCEITOS LOJA      000027247420000000000080393910006       VIGENTE                    NN        ITHF-2323CS10                                                                                         NN
0000272475     0000272475     ALCA P/POLIPECTOMIA AUTOCLAVAVEL TP.CRESCENTE 2,2X2300X15MM                                         23062016F000017631900000000000000000000000000000000000000000000000000000CX UN  0000100000000000000ACONCEITOS LOJA      000027247520000000000080393910009       VIGENTE                    NN        ITHF-2323CS15                                                                                         NN
0000272476     0000272476     ALCA P/POLIPECTOMIA AUTOCLAVAVEL TP.CRESCENTE 2,2X2300X20MM                                         23062016F000017631900000000000000000000000000000000000000000000000000000CX UN  0000100000000000000ACONCEITOS LOJA      000027247620000000000080393910006       VIGENTE                    NN        ITHF-2323CS20                                                                                         NN
0000272443     0000272443     ALCA P/POLIPECTOMIA AUTOCLAVAVEL TP.HEXAGONAL 2,2X1700X10MM                                         23062016F000017631900000000000000000000000000000000000000000000000000000CX UN  0000100000000000000ACONCEITOS LOJA      000027244320000000000080393910006       VIGENTE                    NN        ITHF-2317HS10                                                                                         NN
0000272447     0000272447     ALCA P/POLIPECTOMIA AUTOCLAVAVEL TP.HEXAGONAL 2,2X1700X15MM                                         23062016F000017631900000000000000000000000000000000000000000000000000000CX UN  0000100000000000000ACONCEITOS LOJA      000027244720000000000080393910006       VIGENTE                    NN        ITHF-2317HS15                                                                                         NN
0000272450     0000272450     ALCA P/POLIPECTOMIA AUTOCLAVAVEL TP.HEXAGONAL 2,2X1700X20MM                                         23062016F000017631900000000000000000000000000000000000000000000000000000CX UN  0000100000000000000ACONCEITOS LOJA      000027245020000000000080393910006       VIGENTE                    NN        ITHF-2317HS20                                                                                         NN
0000272452     0000272452     ALCA P/POLIPECTOMIA AUTOCLAVAVEL TP.HEXAGONAL 2,2X1700X30MM                                         23062016F000017631900000000000000000000000000000000000000000000000000000CX UN  0000100000000000000ACONCEITOS LOJA      000027245220000000000080393910006       VIGENTE                    NN        ITHF-2317HS30                                                                                         NN
0000272453     0000272453     ALCA P/POLIPECTOMIA AUTOCLAVAVEL TP.HEXAGONAL 2,2X1700X40MM                                         23062016F000017631900000000000000000000000000000000000000000000000000000CX UN  0000100000000000000ACONCEITOS LOJA      000027245320000000000080393910006       VIGENTE                    NN        ITHF-2317HS40                                                                                         NN
0000272454     0000272454     ALCA P/POLIPECTOMIA AUTOCLAVAVEL TP.HEXAGONAL 2,2X2300X10MM                                         23062016F000017631900000000000000000000000000000000000000000000000000000CX UN  0000100000000000000ACONCEITOS LOJA      000027245420000000000080393910006       VIGENTE                    NN        ITHF-2323HS10                                                                                         NN
0000272455     0000272455     ALCA P/POLIPECTOMIA AUTOCLAVAVEL TP.HEXAGONAL 2,2X2300X15MM                                         23062016F000017631900000000000000000000000000000000000000000000000000000CX UN  0000100000000000000ACONCEITOS LOJA      000027245520000000000080393910006       VIGENTE                    NN        ITHF-2323HS15                                                                                         NN
0000272456     0000272456     ALCA P/POLIPECTOMIA AUTOCLAVAVEL TP.HEXAGONAL 2,2X2300X20MM                                         23062016F000017631900000000000000000000000000000000000000000000000000000CX UN  0000100000000000000ACONCEITOS LOJA      000027245620000000000080393910006       VIGENTE                    NN        ITHF-2323HS20                                                                                         NN
0000272457     0000272457     ALCA P/POLIPECTOMIA AUTOCLAVAVEL TP.HEXAGONAL 2,2X2300X30MM                                         23062016F000017631900000000000000000000000000000000000000000000000000000CX UN  0000100000000000000ACONCEITOS LOJA      000027245720000000000080393910006       VIGENTE                    NN        ITHF-2323HS30                                                                                         NN
0000272458     0000272458     ALCA P/POLIPECTOMIA AUTOCLAVAVEL TP.HEXAGONAL 2,2X2300X40MM                                         23062016F000017631900000000000000000000000000000000000000000000000000000CX UN  0000100000000000000ACONCEITOS LOJA      000027245820000000000080393910006       VIGENTE                    NN        ITHF-2323HS40                                                                                         NN
0000272425     0000272425     ALCA P/POLIPECTOMIA AUTOCLAVAVEL TP.OVAL 2,2X1700X05MM                                              23062016F000017631900000000000000000000000000000000000000000000000000000CX UN  0000100000000000000ACONCEITOS LOJA      000027242520000000000080393910006       VIGENTE                    NN        ITHF-2317OS5                                                                                          NN
0000272426     0000272426     ALCA P/POLIPECTOMIA AUTOCLAVAVEL TP.OVAL 2,2X1700X10MM                                              23062016F000017631900000000000000000000000000000000000000000000000000000CX UN  0000100000000000000ACONCEITOS LOJA      000027242620000000000080393910006       VIGENTE                    NN        ITHF-2317OS10                                                                                         NN
0000272427     0000272427     ALCA P/POLIPECTOMIA AUTOCLAVAVEL TP.OVAL 2,2X1700X15MM                                              23062016F000017631900000000000000000000000000000000000000000000000000000CX UN  0000100000000000000ACONCEITOS LOJA      000027242720000000000080393910006       VIGENTE                    NN        ITHF-2317OS15                                                                                         NN
0000272429     0000272429     ALCA P/POLIPECTOMIA AUTOCLAVAVEL TP.OVAL 2,2X1700X20MM                                              23062016F000017631900000000000000000000000000000000000000000000000000000CX UN  0000100000000000000ACONCEITOS LOJA      000027242920000000000080393910006       VIGENTE                    NN        ITHF-2317OS20                                                                                         NN
0000272430     0000272430     ALCA P/POLIPECTOMIA AUTOCLAVAVEL TP.OVAL 2,2X1700X30MM                                              23062016F000017631900000000000000000000000000000000000000000000000000000CX UN  0000100000000000000ACONCEITOS LOJA      000027243020000000000080393910006       VIGENTE                    NN        ITHF-2317OS30                                                                                         NN
0000272432     0000272432     ALCA P/POLIPECTOMIA AUTOCLAVAVEL TP.OVAL 2,2X1700X40MM                                              23062016F000017631900000000000000000000000000000000000000000000000000000CX UN  0000100000000000000ACONCEITOS LOJA      000027243220000000000080393910006       VIGENTE                    NN        ITHF-2317OS40                                                                                         NN
0000272436     0000272436     ALCA P/POLIPECTOMIA AUTOCLAVAVEL TP.OVAL 2,2X2300X05MM                                              23062016F000017631900000000000000000000000000000000000000000000000000000CX UN  0000100000000000000ACONCEITOS LOJA      000027243620000000000080393910006       VIGENTE                    NN        ITHF-2323OS5                                                                                          NN
0000272438     0000272438     ALCA P/POLIPECTOMIA AUTOCLAVAVEL TP.OVAL 2,2X2300X10MM                                              23062016F000017631900000000000000000000000000000000000000000000000000000CX UN  0000100000000000000ACONCEITOS LOJA      000027243820000000000080393910006       VIGENTE                    NN        ITHF-2323OS10                                                                                         NN
0000272439     0000272439     ALCA P/POLIPECTOMIA AUTOCLAVAVEL TP.OVAL 2,2X2300X15MM                                              23062016F000017631900000000000000000000000000000000000000000000000000000CX UN  0000100000000000000ACONCEITOS LOJA      000027243920000000000080393910006       VIGENTE                    NN        ITHF-2323OS15                                                                                         NN
0000272440     0000272440     ALCA P/POLIPECTOMIA AUTOCLAVAVEL TP.OVAL 2,2X2300X20MM                                              23062016F000017631900000000000000000000000000000000000000000000000000000CX UN  0000100000000000000ACONCEITOS LOJA      000027244020000000000080393910006       VIGENTE                    NN        ITHF-2323OS20                                                                                         NN
0000272441     0000272441     ALCA P/POLIPECTOMIA AUTOCLAVAVEL TP.OVAL 2,2X2300X30MM                                              23062016F000017631900000000000000000000000000000000000000000000000000000CX UN  0000100000000000000ACONCEITOS LOJA      000027244120000000000080393910006       VIGENTE                    NN        ITHF-2323OS30                                                                                         NN
0000272442     0000272442     ALCA P/POLIPECTOMIA AUTOCLAVAVEL TP.OVAL 2,2X2300X40MM                                              23062016F000017631900000000000000000000000000000000000000000000000000000CX UN  0000100000000000000ACONCEITOS LOJA      000027244220000000000080393910006       VIGENTE                    NN        ITHF-2323OS40                                                                                         NN
0000266276     0000266276     ALCA P/POLIPECTOMIA CAPTIVATOR II 10MM                                                              31012017F000006100000000000000000000000000000000000000000000000000000000   UN  0000100000000000000ABOSTON ENDOSCOPY    000026627620000000000010341350704       06082022                   NN        MEM00561221                                                                                           NN
0000266277     0000266277     ALCA P/POLIPECTOMIA CAPTIVATOR II 15MM                                                              31012017F000006100000000000000000000000000000000000000000000000000000000   UN  0000100000000000000ABOSTON ENDOSCOPY    000026627720000000000010341350704       06082022                   NN        MEM00561232                                                                                           NN
0000266278     0000266278     ALCA P/POLIPECTOMIA CAPTIVATOR II 20MM                                                              31012017F000006100000000000000000000000000000000000000000000000000000000   UN  0000100000000000000ABOSTON ENDOSCOPY    000026627820000000000010341350704       06082022                   NN        MEM00561241                                                                                           NN
0000266275     0000266275     ALCA P/POLIPECTOMIA CAPTIVATOR II 25MM                                                              31012017F000006100000000000000000000000000000000000000000000000000000000   UN  0000100000000000000ABOSTON ENDOSCOPY    000026627520000000000010341350704       06082022                   NN        MEM00561191                                                                                           NN
0000272468     0000272468     ALCA P/POLIPECTOMIA DESC.TP.CRESCENTE 2,2X1700X10MM                                                 23062016F000004701900000000000000000000000000000000000000000000000000000CX UN  0000100000000000000ACONCEITOS LOJA      000027246820000000000080393910009       VIGENTE                    NN        ITHF-2317CS10D                                                                                        NN
0000272471     0000272471     ALCA P/POLIPECTOMIA DESC.TP.CRESCENTE 2,2X1700X15MM                                                 23062016F000004701900000000000000000000000000000000000000000000000000000CX UN  0000100000000000000ACONCEITOS LOJA      000027247120000000000080393910009       VIGENTE                    NN        ITHF-2317CS15D                                                                                        NN
0000272472     0000272472     ALCA P/POLIPECTOMIA DESC.TP.CRESCENTE 2,2X1700X20MM                                                 23062016F000004701900000000000000000000000000000000000000000000000000000CX UN  0000100000000000000ACONCEITOS LOJA      000027247220000000000080393910009       VIGENTE                    NN        ITHF-2317CS20D                                                                                        NN
0000272473     0000272473     ALCA P/POLIPECTOMIA DESC.TP.CRESCENTE 2,2X2300X10MM                                                 23062016F000004701900000000000000000000000000000000000000000000000000000CX UN  0000100000000000000ACONCEITOS LOJA      000027247320000000000080393910009       VIGENTE                    NN        ITHF-2323CS10D                                                                                        NN
0000272477     0000272477     ALCA P/POLIPECTOMIA DESC.TP.CRESCENTE 2,2X2300X15MM                                                 23062016F000004701900000000000000000000000000000000000000000000000000000CX UN  0000100000000000000ACONCEITOS LOJA      000027247720000000000080393910009       VIGENTE                    NN        ITHF-2323CS15D                                                                                        NN
0000272480     0000272480     ALCA P/POLIPECTOMIA DESC.TP.CRESCENTE 2,2X2300X20MM                                                 23062016F000004701900000000000000000000000000000000000000000000000000000CX UN  0000100000000000000ACONCEITOS LOJA      000027248020000000000080393910009       VIGENTE                    NN        ITHF-2323CS20D                                                                                        NN
0000272448     0000272448     ALCA P/POLIPECTOMIA DESC.TP.HEXAGONAL 2,2X1700X10MM                                                 23062016F000004701900000000000000000000000000000000000000000000000000000CX UN  0000100000000000000ACONCEITOS LOJA      000027244820000000000080393910009       VIGENTE                    NN        ITHF2317HS10D                                                                                         NN
0000272449     0000272449     ALCA P/POLIPECTOMIA DESC.TP.HEXAGONAL 2,2X1700X15MM                                                 23062016F000004701900000000000000000000000000000000000000000000000000000CX UN  0000100000000000000ACONCEITOS LOJA      000027244920000000000080393910009       VIGENTE                    NN        ITHF-2317HS15D                                                                                        NN
0000272451     0000272451     ALCA P/POLIPECTOMIA DESC.TP.HEXAGONAL 2,2X1700X20MM                                                 23062016F000004701900000000000000000000000000000000000000000000000000000CX UN  0000100000000000000ACONCEITOS LOJA      000027245120000000000080393910009       VIGENTE                    NN        ITHF-2317HS20D                                                                                        NN
0000272459     0000272459     ALCA P/POLIPECTOMIA DESC.TP.HEXAGONAL 2,2X1700X30MM                                                 23062016F000004701900000000000000000000000000000000000000000000000000000CX UN  0000100000000000000ACONCEITOS LOJA      000027245920000000000080393910009       VIGENTE                    NN        ITHF-2317HS30D                                                                                        NN
0000272461     0000272461     ALCA P/POLIPECTOMIA DESC.TP.HEXAGONAL 2,2X2300X10MM                                                 23062016F000004701900000000000000000000000000000000000000000000000000000CX UN  0000100000000000000ACONCEITOS LOJA      000027246120000000000080393910009       VIGENTE                    NN        ITHF-2323HS10D                                                                                        NN
0000272462     0000272462     ALCA P/POLIPECTOMIA DESC.TP.HEXAGONAL 2,2X2300X15MM                                                 23062016F000004701900000000000000000000000000000000000000000000000000000CX UN  0000100000000000000ACONCEITOS LOJA      000027246220000000000080393910009       VIGENTE                    NN        ITHF-2323HS15D                                                                                        NN
0000272464     0000272464     ALCA P/POLIPECTOMIA DESC.TP.HEXAGONAL 2,2X2300X20MM                                                 23062016F000004701900000000000000000000000000000000000000000000000000000CX UN  0000100000000000000ACONCEITOS LOJA      000027246420000000000080393910009       VIGENTE                    NN        ITHF-2323HS20D                                                                                        NN
0000272465     0000272465     ALCA P/POLIPECTOMIA DESC.TP.HEXAGONAL 2,2X2300X30MM                                                 23062016F000004701900000000000000000000000000000000000000000000000000000CX UN  0000100000000000000ACONCEITOS LOJA      000027246520000000000080393910009       VIGENTE                    NN        ITHF-2323HS30D                                                                                        NN
0000272478     0000272478     ALCA P/POLIPECTOMIA DESC.TP.OVAL 2,2X1700X05MM                                                      23062016F000004701900000000000000000000000000000000000000000000000000000CX UN  0000100000000000000ACONCEITOS LOJA      000027247820000000000080393910009       VIGENTE                    NN        ITHF-2317OS5D                                                                                         NN
0000272479     0000272479     ALCA P/POLIPECTOMIA DESC.TP.OVAL 2,2X1700X10MM                                                      23062016F000004701900000000000000000000000000000000000000000000000000000CX UN  0000100000000000000ACONCEITOS LOJA      000027247920000000000080393910009       VIGENTE                    NN        ITHF-2317OS10D                                                                                        NN
0000272428     0000272428     ALCA P/POLIPECTOMIA DESC.TP.OVAL 2,2X1700X15MM                                                      23062016F000004701900000000000000000000000000000000000000000000000000000CX UN  0000100000000000000ACONCEITOS LOJA      000027242820000000000080393910006       VIGENTE                    NN        ITHF-2317OS15D                                                                                        NN
0000272431     0000272431     ALCA P/POLIPECTOMIA DESC.TP.OVAL 2,2X1700X20MM                                                      23062016F000004701900000000000000000000000000000000000000000000000000000CX UN  0000100000000000000ACONCEITOS LOJA      000027243120000000000080393910009       VIGENTE                    NN        ITHF-2317OS20D                                                                                        NN
0000272433     0000272433     ALCA P/POLIPECTOMIA DESC.TP.OVAL 2,2X1700X30MM                                                      23062016F000004701900000000000000000000000000000000000000000000000000000CX UN  0000100000000000000ACONCEITOS LOJA      000027243320000000000080393910009       VIGENTE                    NN        ITHF-2317OS30D                                                                                        NN
0000272434     0000272434     ALCA P/POLIPECTOMIA DESC.TP.OVAL 2,2X2300X05MM                                                      23062016F000004701900000000000000000000000000000000000000000000000000000CX UN  0000100000000000000ACONCEITOS LOJA      000027243420000000000080393910009       VIGENTE                    NN        ITHF-2323OS5D                                                                                         NN
0000272435     0000272435     ALCA P/POLIPECTOMIA DESC.TP.OVAL 2,2X2300X10MM                                                      23062016F000004701900000000000000000000000000000000000000000000000000000CX UN  0000100000000000000ACONCEITOS LOJA      000027243520000000000080393910009       VIGENTE                    NN        ITHF-2323OS10D                                                                                        NN
0000272437     0000272437     ALCA P/POLIPECTOMIA DESC.TP.OVAL 2,2X2300X15MM                                                      23062016F000004701900000000000000000000000000000000000000000000000000000CX UN  0000100000000000000ACONCEITOS LOJA      000027243720000000000080393910009       VIGENTE                    NN        ITHF-2323OS15D                                                                                        NN
0000272444     0000272444     ALCA P/POLIPECTOMIA DESC.TP.OVAL 2,2X2300X20MM                                                      23062016F000004701900000000000000000000000000000000000000000000000000000CX UN  0000100000000000000ACONCEITOS LOJA      000027244420000000000080393910009       VIGENTE                    NN        ITHF-2323OS20D                                                                                        NN
0000272445     0000272445     ALCA P/POLIPECTOMIA DESC.TP.OVAL 2,2X2300X30MM                                                      23062016F000004701900000000000000000000000000000000000000000000000000000CX UN  0000100000000000000ACONCEITOS LOJA      000027244520000000000080393910009       VIGENTE                    NN        ITHF-2323OS30D                                                                                        NN
0000272446     0000272446     ALCA P/POLIPECTOMIA DESC.TP.OVAL 2,2X2300X40MM                                                      23062016F000004701900000000000000000000000000000000000000000000000000000CX UN  0000100000000000000ACONCEITOS LOJA      000027244620000000000080393910009       VIGENTE                    NN        ITHF-2323OS40D                                                                                        NN
0000253392     0000253392     ALCA P/POLIPECTOMIA OVAL ROT.ABERT.15MM/DIAM.2,4MMX230CM DESC.                                      09032017F000009000000000000000000000000000000000000000000000000000000000   UN  0000100000000000000AG.F.E. DO BRASIL    000025339220000000000010334780015       18102019                   NN        MENOE342214G                                                                                          NN
0000253393     0000253393     ALCA P/POLIPECTOMIA OVAL ROT.ABERT.25MM/DIAM.2,4MMX230CM DESC.                                      09032017F000009000000000000000000000000000000000000000000000000000000000   UN  0000100000000000000AG.F.E. DO BRASIL    000025339320000000000010334780015       18102019                   NN        MENOE342216G                                                                                          NN
0000253394     0000253394     ALCA P/POLIPECTOMIA OVAL ROT.ABERT.35MM/DIAM.2,4MMX230CM DESC.                                      09032017F000009000000000000000000000000000000000000000000000000000000000   UN  0000100000000000000AG.F.E. DO BRASIL    000025339420000000000010334780015       18102019                   NN        MENOE342217G                                                                                          NN
0000259697     0000259697     ALCA POLIPECTOMIA CONMED                                                                            26012017A000000000000000000000000000000000000000000000000000000000000000ENVUN  0000100000000000000SVITAL MEDICAL       000025969720000000000080375540026       VIGENTE                    NN        ME000478                                                                                              NN
0000259696     0000259696     ALCA POLIPECTOMIA CONMED                                                                            26012017A000000000000000000000000000000000000000000000000000000000000000ENVUN  0000100000000000000SVITAL MEDICAL       000025969620000000000080375540026       VIGENTE                    NN        ME000959                                                                                              NN
0000271077     0000271077     ALCA POLIPECTOMIA DESC.LARIAT 2,4MMX230CM/OVAL 30X55MM/HEXAGONAL 10X28MM/DIAMOND 6X15MM             10052016F000005220000000000000000000000000000000000000000000000000000000CX UN  0000100000000000000AGASTROCOM           000027107720000000020080050030045       04102020                   NN        ME711119                                                                                              NN
0000283293     0000283293     ALCA POLIPECTOMIA FRIA 10MM 230CM                                                                   07032017F000004680300000000000000000000000000000000000000000000000000000ENVUN  0000100000000000000APROMEDON            000028329320000000080080117580478       VIGENTE                    NN        MECS3-11023230                                                                                        NN
0000283294     0000283294     ALCA POLIPECTOMIA FRIA 15MM 230CM                                                                   07032017F000004680300000000000000000000000000000000000000000000000000000ENVUN  0000100000000000000APROMEDON            000028329420000000080080117580478       VIGENTE                    NN        MECS3-11523230                                                                                        NN
0000265868     0000265868     ALCA POLIPECTOMIA OVAL DESC.                                                                        09032017F000009000000000000000000000000000000000000000000000000000000000   UN  0000100000000000000AG.F.E. DO BRASIL    000026586820000000000010334780042       VIGENTE                    NN        MEGF4575                                                                                              NN
0000265870     0000265870     ALCA POLIPECTOMIA OVAL DESC.                                                                        09032017F000009000000000000000000000000000000000000000000000000000000000   UN  0000100000000000000AG.F.E. DO BRASIL    000026587020000000000010334780042       VIGENTE                    NN        MEGF4564                                                                                              NN
0000282645     0000282645     ALCOMAX ESPUMA PLUS 70% 0050ML                                                                      21022017F000000115000000000000000000000000000000000000000000000000000000FR ML  0005000000000000000ACOSMODERMA          0000282645300000000000251160022         17022019                   NN        MC                                                                                                    NN
0000282644     0000282644     ALCOMAX ESPUMA PLUS 70% 0160ML                                                                      21022017F000000286000000000000000000000000000000000000000000000000000000FR ML  0016000000000000000ACOSMODERMA          0000282644300000000000251160022         17022019                   NN        MC                                                                                                    NN
0000282643     0000282643     ALCOMAX ESPUMA PLUS 70% 1000ML                                                                      21022017F000000680000000000000000000000000000000000000000000000000000000BLDML  0100000000000000000ACOSMODERMA          0000282643300000000000251160022         17022019                   NN        MC                                                                                                    NN
0000282642     0000282642     ALCOMAX ESPUMA PLUS 70% 1200ML                                                                      21022017F000000850000000000000000000000000000000000000000000000000000000BLDML  0120000000000000000ACOSMODERMA          0000282642300000000000251160022         17022019                   NN        MC                                                                                                    NN
0000282641     0000282641     ALCOMAX GEL PLUS 70% 0030ML                                                                         21022017F000000095000000000000000000000000000000000000000000000000000000FR ML  0003000000000000000ACOSMODERMA          0000282641300000000000251160023         17022019                   NN        MC                                                                                                    NN
0000282640     0000282640     ALCOMAX GEL PLUS 70% 0060ML                                                                         21022017F000000155000000000000000000000000000000000000000000000000000000FR ML  0006000000000000000ACOSMODERMA          0000282640300000000000251160023         17022019                   NN        MC                                                                                                    NN
0000282639     0000282639     ALCOMAX GEL PLUS 70% 0500ML                                                                         21022017F000000351000000000000000000000000000000000000000000000000000000FR ML  0050000000000000000ACOSMODERMA          0000282639300000000000251160023         17022019                   NN        MC                                                                                                    NN
0000282638     0000282638     ALCOMAX GEL PLUS 70% 1000ML                                                                         21022017F000000520000000000000000000000000000000000000000000000000000000BLDML  0100000000000000000ACOSMODERMA          0000282638300000000000251160023         17022019                   NN        MC                                                                                                    NN
0000282637     0000282637     ALCOMAX GEL PLUS 70% 1200ML                                                                         21022017F000000640000000000000000000000000000000000000000000000000000000BLDML  0120000000000000000ACOSMODERMA          0000282637300000000000251160023         17022019                   NN        MC                                                                                                    NN
0000276974     0000276974     ALERE TRIAGE METER                                                                                  19092016F000140000000000000000000000000000000000000000000000000000000000CX UN  0000100000000000000AALERE               000027697420000000000010071770850       PENDENTE                   NN        BD55071                                                                                               NN
0000243062     0000243062     AMINOFILINA GEN.200MG PVC 20CPDS                                                                    27032017L000000000000000000000000000000000000000000000000000000000000000CX CPDS0002000000000000000LTEUTO BRAS          00002430625000000000001037004450099     30042019     789611210354 +NS90135253                                                                                                      SN
0000276945     0000276945     ANALISADOR HEMATOLOGICO MYTHIC                                                                      19092016F001130000000000000000000000000000000000000000000000000000000000CX UN  0000100000000000000AALERE               000027694520000000000010071770608       VIGENTE                    NN        BDMYTHIC22                                                                                            NN
0000276949     0000276949     ANALISADOR PRIMA                                                                                    19092016F000350000000000000000000000000000000000000000000000000000000000ESTUN  0000100000000000000AALERE               000027694920000000000010071770851       PENDENTE                   NN        BD260300003                                                                                           NN
0000177564     0000177564     ANALISADOR ROTEM DELTA                                                                              10032015F002525000000000000000000000000000000000000000000000000000000000CX UN  0000100000000000000ASUNMEDCARE          000017756420000000000080291330016       VIGENTE                    NN        BD200100                                                                                              NN
0000276985     0000276985     ANALISADOR URINA MINI URISED                                                                        19092016F001120000000000000000000000000000000000000000000000000000000000ESTUN  0000100000000000000AALERE               000027698520000000000010071770845       VIGENTE                    NN        BDURISED MINI                                                                                         NN
0000077442     0000077442     ANALISADOR URINA URISYS 1100                                                                        28072006F000035500000000000000000000000000000000000000000000000000000000   UN  0000100000000000000AROCHE DIABETES      000007744220000000000010287410738       14072018                   NN        BD3617548001                                                                                          NN
0000153510     0000153510     ANDROCORTIL 100MG PO LIOF.INJ.1FA+AMP.DIL.POLIET.2ML                                                27032017L000000000000000000000000000000000000000000000000000000000000000CX FA  0000100000000000000LTEUTO BRAS          00001535105000000000001037004630011     30042020                  +NN90135342                                                                                                      NN
0000153511     0000153511     ANDROCORTIL 500MG PO LIOF.INJ.1FA+AMP DIL.POLIET.4ML                                                27032017L000000000000000000000000000000000000000000000000000000000000000CX FA  0000100000000000000LTEUTO BRAS          00001535115000000000001037004630021     30042020                  +NN90135369                                                                                                      NN
0000079151     0000079151     APARELHO ANESTESIA VITAL                                                                            28102014F001080136800000000000000000000000000000000000000000000000000000CX UN  0000100000000000000AJG MORIYA           000007915120000000080010349590046       26092020                   NN        BD700.000P                                                                                            NN
0000176870     0000176870     APARELHO ANESTESIA VITAL MOD.7500                                                                   07032017L000000000000000000000000000000000000000000000000000000000000000CX UN  0000100000000000000LJG MORIYA           000017687020000000080010349590052       10092017                   NN        BD700.500P                                                                                            NN
0000081646     0000081646     APARELHO C/TUBO DUPLO IRRIGACAO/ASPIRACAO ESTERIL HYDROFLOW                                         10092015F000007703200000000000000000000000000000000000000000000000000000   UN  0000100000000000000ACIRURGICA FERNANDES 000008164620000000000010150470205       16052017                   NN        MC600.100.000                                                                                         NN
0000275903     0000275903     APARELHO FOTOTERAPIA BILITRON 3006 FANEM                                                            07032017F000212800000000000000000000000000000000000000000000000000000000CX UN  0000100000000000000ADATAMED             000027590320000000000010224620049       29042019                   NN        BD006.002.900                                                                                         NN
0000275905     0000275905     APARELHO FOTOTERAPIA BILITRON BED 4006 FANEM                                                        07032017F000443520000000000000000000000000000000000000000000000000000000CX UN  0000100000000000000ADATAMED             000027590520000000000010224620068       19112019                   NN        BD406106900                                                                                           NN
0000275904     0000275904     APARELHO FOTOTERAPIA BILITRON SKY 5006 FANEM                                                        07032017F000230400000000000000000000000000000000000000000000000000000000CX UN  0000100000000000000ADATAMED             000027590420000000000010224620070       25072021                   NN        BD506001900                                                                                           NN
0000113956     0000113956     APARELHO STIMUPLEX HNS 12                                                                           09062016F000276421000000000000000000000000000000000000000000000000000000   UN  0000100000000000000AB.BRAUN             000011395620000000020080136990463       VIGENTE      4046963478230 NN        BD4892098                                                                                             NN
0000007539     0000007539     AQUECEDOR GEL P/EXAME ULTRA SOM GELKENT                                                             03052016F000005060000000000000000000000000000000000000000000000000000000CX UN  0000100000000000000ACARBOGEL            0000007539200000001000ISENTO                                       NN        BD                                                                                                    NN
0000173009     0000173009     AQUECEDOR TUBOS P/CONTROLE TEMP.DURANTE PROCESSO CAPITACAO OVULOS C/6ABERTURAS                      10072014F000152766000000000000000000000000000000000000000000000000000000CX UN  0000100000000000000AHANDLE              0000173009200000000000ISENTO                                       NN        BDK-FTH-1012                                                                                          NN
0000274725     0000274725     ASPIRADOR A45 PLUS FRASCO 2,5MICRO FILTRO BACTERIOLOGICO                                            19072016F000063250000000000000000000000000000000000000000000000000000000CX UN  0000100000000000000ACONCEITOS LOJA      000027472520000000000010227189012       VIGENTE                    NN        BD                                                                                                    NN
0000274726     0000274726     ASPIRADOR A45 PLUS FRASCO 2,5MICRO FILTRO BACTERIOLOGICO SUPORTE 5RODIZIOS                          19072016F000071500000000000000000000000000000000000000000000000000000000CX UN  0000100000000000000ACONCEITOS LOJA      000027472620000000000010227189012       VIGENTE                    NN        BD                                                                                                    NN
0000248450     0000248450     ASPIRADOR MANUAL INTRA UTERINO KOLPLAST                                                             24032017F000008305900000000000000000000000000000000000000000000000000000PGCUN  0000100000000000000PKOLPLAST            000024845020000000000010237610087       01032018                   NN        MC101.112                                                                                             NN
0000275909     0000275909     ASPIRADOR SECRECOES R2D2 FANEM                                                                      26082016F000183840000000000000000000000000000000000000000000000000000000CX UN  0000100000000000000ADATAMED             000027590920000000000010224620032       VIGENTE                    NN        BD089.008.900                                                                                         NN
0000271250     0000271250     AVENTAL P/PACIENTE AZUL 30GR 20UNID                                                                 24032017F000001774100000000000000000000000000088710000000000000000000000PCTUN  0002000000000000000PKOLPLAST            0000271250200000000800ISENTO                                       NS        MC202054                                                                                              NN
0000141292     0000141292     AVENTAL P/QUIMIOTERAPIA SMS AZUL 60GRS N/EST.120X140CM                                              08092011F000000295000000000000000000000000000000000000000000000000000000   UN  0000100000000000000ADEXCAR              000014129220000000000080236950006       VIGENTE                    NN        MC                                                                                                    NN
0000141293     0000141293     AVENTAL P/QUIMIOTERAPIA SMS AZUL 60GRS N/EST.120X160CM                                              08092011F000000325000000000000000000000000000000000000000000000000000000   UN  0000100000000000000ADEXCAR              000014129320000000000080236950006       VIGENTE                    NN        MC                                                                                                    NN
0000246068     0000246068     AVENTAL SMS C/PROTECAO IMPERMEAVEL P/QUIMIOTERAPIA 50GR WINNER                                      27102015F000000680000000000000000000000000000000000000000000000000000000   UN  0000100000000000000AWINNER              000024606820000000000080201960096       VIGENTE                    NN        MC                                                                                                    NN
0000254563     0000254563     AV-SET 5008 CORDIAX POST                                                                            11032015F000003472200000000000000000000000000000000000000000000000000000   UN  0000100000000000000AFRESENIUS MEDIC.CARE000025456320000000000080133950097       30042017                   NN        ME                                                                                                    NN
0000283368     0000283368     AZUL TRYPAN 0,1% OPHTHAL-TRYP 0,1% 1ML                                                              16032017F000000190000000000000000000000000000000000000000000000000000000FA ML  0000100000000000000ALEEDSAY             000028336820000000000080443070008       VIGENTE                    NN        MC                                                                                                    NN
0000283603     0000283603     BACIA P/LAVAGEM BIODEGRADAVEL 2LT                                                                   23032017F000000314600000000000000000000000000000000000000000000000000000CX UN  0000100000000000000IZAREK               0000283603200000000000ISENTO                                       NN        MC118AA100                                                                                            NN
0000152454     0000152454     BACIA PLASTICA 32CM TAYLOR                                                                          25022011F000000144000000000000000000000000000000000000000000000000000000   UN  0000100000000000000ACIRURGICA BRASIL    0000152454200000000000ISENTO                                       NN        BDBACIAR32                                                                                            NN
0000283490     0000283490     BANDAGEM/FAIXA INELASTICA CIRCAID COMFORT AFW PAC BAND TAM.G REUT.                                  21032017F000005600000000000000000000000000000000000000000000000000000000CX UN  0000100000000000000IMEDI BRASIL         000028349020000000000081380060013       VIGENTE                    NN        MEJU5P002                                                                                             NN
0000283491     0000283491     BANDAGEM/FAIXA INELASTICA CIRCAID COMFORT AFW PAC BAND TAM.P REUT.                                  21032017F000005600000000000000000000000000000000000000000000000000000000CX UN  0000100000000000000IMEDI BRASIL         000028349120000000000081380060013       VIGENTE                    NN        MEJU5P001                                                                                             NN
0000283493     0000283493     BANDAGEM/FAIXA INELASTICA CIRCAID JUXTAFIT COXA/JOELHO TAM.G ESQ.REUT.                              21032017F000026800000000000000000000000000000000000000000000000000000000CX UN  0000100000000000000IMEDI BRASIL         000028349320000000000081380060015       VIGENTE                    NN        MEJU29734                                                                                             NN
0000283495     0000283495     BANDAGEM/FAIXA INELASTICA CIRCAID JUXTAFIT COXA/JOELHO TAM.GG ESQ.REUT.                             21032017F000026800000000000000000000000000000000000000000000000000000000CX UN  0000100000000000000IMEDI BRASIL         000028349520000000000081380060015       VIGENTE                    NN        MEJU29735                                                                                             NN
0000283496     0000283496     BANDAGEM/FAIXA INELASTICA CIRCAID JUXTAFIT COXA/JOELHO TAM.M DIR.REUT.                              21032017F000026800000000000000000000000000000000000000000000000000000000CX UN  0000100000000000000IMEDI BRASIL         000028349620000000000081380060015       VIGENTE                    NN        MEJU29743                                                                                             NN
0000089915     0000089915     BANDEJA 22X12X1,5CM                                                                                 13072016F000000640000000000000000000000000000000000000000000000000000000   UN  0000100000000000000ARICHTER             000008991520000000000010253649013       VIGENTE                    NN        BD                                                                                                    NN
0000089916     0000089916     BANDEJA 22X9X1,5CM                                                                                  13072016F000000420000000000000000000000000000000000000000000000000000000   UN  0000100000000000000ARICHTER             000008991620000000000010253649013       VIGENTE                    NN        BD                                                                                                    NN
0000269172     0000269172     BANDEJA ACO INOX                                                                                    29032016F000005225000000000000000000000000000000000000000000000000000000CX UN  0000100000000000000ACONCEITOS LOJA      0000269172200000000000ISENTO                                       NN        BD                                                                                                    NN
0000253740     0000253740     BASE UMIDIFICACAO AQUECIDA H5I RESMED                                                               20022015F000018000000000000000000000000000000000000000000000000000000000   UN  0000100000000000000ALUMIAR              0000253740200000000800800473000501      VIGENTE                    NN        BD36834                                                                                               NN
0000253741     0000253741     BATERIA PORTATIL RESMED                                                                             20022015F000090000000000000000000000000000000000000000000000000000000000   UN  0000100000000000000ALUMIAR              0000253741200000001500800473000518      VIGENTE                    NN        BD24947                                                                                               NN
0000259549     0000259549     BBRAUN ILEO GEL+ 45UNID                                                                             04082015F000002907000000000000000000000000000064600000000000000000000000CX UN  0004500000000000000AB.BRAUN             000025954920000000000080136999042       VIGENTE      4046964594205 NS        MC005012BR                                                                                            NN
0000111241     0000111241     BENZAPEN G 300000+100000UI PO/SUSP.50FA                                                             18042016F000001522800000000000000000000000000030460000000000000000000000CX FA  0005000000000000000ATEUTO BRAS          00001112415000000000001037001580064     31122021                  +SS90135725                                                                                                      NN
0000275902     0000275902     BERCO AQUECIDO AMPLA 2085 FANEM                                                                     07032017F000609840000000000000000000000000000000000000000000000000000000CX UN  0000100000000000000ADATAMED             000027590220000000000010224620067       19112019                   NN        BD004.099.700                                                                                         NN
0000274740     0000274740     BERCO AQUECIDO MATRIX R                                                                             19072016F000385000000000000000000000000000000000000000000000000000000000CX UN  0000100000000000000ACONCEITOS LOJA      000027474020000000000010227180037       17082020                   NN        BD                                                                                                    NN
0000274741     0000274741     BERCO AQUECIDO MATRIX R BALANCA BLENDER REANIMA                                                     19072016F000715000000000000000000000000000000000000000000000000000000000CX UN  0000100000000000000ACONCEITOS LOJA      000027474120000000000010227180037       17082020                   NN        BD                                                                                                    NN
0000274743     0000274743     BERCO AQUECIDO MATRIX R BALANCA BLENDER REANIMA FOTOTERA PRAT.BAND                                  19072016F000825000000000000000000000000000000000000000000000000000000000CX UN  0000100000000000000ACONCEITOS LOJA      000027474320000000000010227180037       17082020                   NN        BD                                                                                                    NN
0000274736     0000274736     BERCO AQUECIDO MATRIX SC                                                                            19072016F000418000000000000000000000000000000000000000000000000000000000CX UN  0000100000000000000ACONCEITOS LOJA      000027473620000000000010227180037       17082020                   NN        BD                                                                                                    NN
0000274738     0000274738     BERCO AQUECIDO MATRIX SC AJUST.ELET.BALAN BAND COLIN O2 FOTOTERA REANIMA                            19072016F000992200000000000000000000000000000000000000000000000000000000CX UN  0000100000000000000ACONCEITOS LOJA      000027473820000000000010227180037       17082020                   NN        BD                                                                                                    NN
0000274739     0000274739     BERCO AQUECIDO MATRIX SC AJUST.ELET.BALAN BAND COLIN O2 FOTOTERA REANIMA SIST.INC.PRAT.GAV.BLENDER  19072016F001108250000000000000000000000000000000000000000000000000000000CX UN  0000100000000000000ACONCEITOS LOJA      000027473920000000000010227180037       17082020                   NN        BD                                                                                                    NN
0000259416     0000259416     BIGUA GEL 0,1% 100G                                                                                 14072015F000001160000000000000000000000000000000000000000000000000000000BG GRS 0010000000000000000AOLIGAM              0000259416200000000000NOTIFICACAO       20112020     7898939141542 NN        MC4000                                                                                                NS
0000259420     0000259420     BIGUA GEL 0,1% 250G                                                                                 14072015F000002900000000000000000000000000000000000000000000000000000000BG GRS 0025000000000000000AOLIGAM              0000259420200000000000NOTIFICACAO       20112020     7898939141559 NN        MC4000                                                                                                NS
0000259411     0000259411     BIGUA GEL 0,1% 30G                                                                                  14072015F000001050000000000000000000000000000000000000000000000000000000BG GRS 0003000000000000000AOLIGAM              0000259411200000000000NOTIFICACAO       20112020     7898939141535 NN        MC4000                                                                                                NS
0000259429     0000259429     BIGUA GEL 0,2% 100G                                                                                 14072015F000001400000000000000000000000000000000000000000000000000000000BG GRS 0010000000000000000AOLIGAM              0000259429200000000000NOTIFICACAO       20112020     7898939141573 NN        MC2079                                                                                                NS
0000259431     0000259431     BIGUA GEL 0,2% 150G                                                                                 14072015F000002100000000000000000000000000000000000000000000000000000000BG GRS 0015000000000000000AOLIGAM              0000259431200000000000NOTIFICACAO       20112020     7898939141580 NN        MC2079                                                                                                NS
0000259433     0000259433     BIGUA GEL 0,2% 250G                                                                                 14072015F000003500000000000000000000000000000000000000000000000000000000BG GRS 0025000000000000000AOLIGAM              0000259433200000000000NOTIFICACAO       20112020     7898939141597 NN        MC2079                                                                                                NS
0000259427     0000259427     BIGUA GEL 0,2% 30G                                                                                  14072015F000001150000000000000000000000000000000000000000000000000000000BG GRS 0003000000000000000AOLIGAM              0000259427200000000000NOTIFICACAO       20112020     7898939141566 NN        MC2079                                                                                                NS
0000259435     0000259435     BIGUA GEL 0,2% 500G                                                                                 14072015F000007000000000000000000000000000000000000000000000000000000000BG GRS 0050000000000000000AOLIGAM              0000259435200000000000NOTIFICACAO       20112020     7898939141603 NN        MC2079                                                                                                NS
0000259439     0000259439     BIGUA GEL 0,3% 100G                                                                                 14072015F000006400000000000000000000000000000000000000000000000000000000BG GRS 0010000000000000000AOLIGAM              0000259439200000000000NOTIFICACAO       25112020     7898939141627 NN        MC5000                                                                                                NS
0000259441     0000259441     BIGUA GEL 0,3% 150G                                                                                 14072015F000009600000000000000000000000000000000000000000000000000000000BG GRS 0015000000000000000AOLIGAM              0000259441200000000000NOTIFICACAO       25112020     7898939141634 NN        MC5000                                                                                                NS
0000259443     0000259443     BIGUA GEL 0,3% 250G                                                                                 14072015F000016000000000000000000000000000000000000000000000000000000000BG GRS 0025000000000000000AOLIGAM              0000259443200000000000NOTIFICACAO       25112020     7898939141641 NN        MC5000                                                                                                NS
0000259437     0000259437     BIGUA GEL 0,3% 30G                                                                                  14072015F000002500000000000000000000000000000000000000000000000000000000BG GRS 0003000000000000000AOLIGAM              0000259437200000000000NOTIFICACAO       25112020     7898939141610 NN        MC5000                                                                                                NS
0000259444     0000259444     BIGUA GEL 0,3% 500G                                                                                 14072015F000032000000000000000000000000000000000000000000000000000000000BG GRS 0050000000000000000AOLIGAM              0000259444200000000000NOTIFICACAO       25112020     7898939141658 NN        MC5000                                                                                                NS
0000251362     0000251362     BIOMBO TRIPLO ESMALTADO C/TECIDO (BRIM CRU)                                                         23062016F000011377800000000000000000000000000000000000000000000000000000CX UN  0000100000000000000ACONCEITOS LOJA      0000251362200000000000ISENTO                                       NN        BD                                                                                                    NN
0000170034     0000170034     BISTURI C/SIST.SEGURANCA NR.10 DESC..                                                               23032017F000000500000000000000000000000000000000000000000000000000000000   UN  0000100000000000000PB.BRAUN             000017003420000000080080136990691       VIGENTE                    NN        ITBA810SU                                                                                             NN
0000170035     0000170035     BISTURI C/SIST.SEGURANCA NR.11 DESC.                                                                23032017F000000500000000000000000000000000000000000000000000000000000000   UN  0000100000000000000PB.BRAUN             000017003520000000080080136990691       VIGENTE                    NN        ITBA811SU                                                                                             NN
0000170036     0000170036     BISTURI C/SIST.SEGURANCA NR.12 DESC.                                                                23032017F000000500000000000000000000000000000000000000000000000000000000   UN  0000100000000000000PB.BRAUN             000017003620000000080080136990691       VIGENTE                    NN        ITBA812SU                                                                                             NN
0000170038     0000170038     BISTURI C/SIST.SEGURANCA NR.13 DESC.                                                                23032017F000000500000000000000000000000000000000000000000000000000000000   UN  0000100000000000000PB.BRAUN             000017003820000000080080136990691       VIGENTE                    NN        ITBA813SU                                                                                             NN
0000170039     0000170039     BISTURI C/SIST.SEGURANCA NR.15 DESC.                                                                23032017F000000500000000000000000000000000000000000000000000000000000000   UN  0000100000000000000PB.BRAUN             000017003920000000080080136990691       VIGENTE                    NN        ITBA815SU                                                                                             NN
0000246711     0000246711     BISTURI C/SIST.SEGURANCA NR.15 DESC.                                                                23032017F000000500000000000000000000000000000000000000000000000000000000   UN  0000100000000000000PB.BRAUN             000024671120000000080080136990691       VIGENTE      4046963510688 NN        ITBA815-CSU                                                                                           NN
0000246710     0000246710     BISTURI C/SIST.SEGURANCA NR.15 DESC.                                                                23032017F000000500000000000000000000000000000000000000000000000000000000   UN  0000100000000000000PB.BRAUN             000024671020000000080080136990691       VIGENTE      4046963510671 NN        ITBA815-1SU                                                                                           NN
0000170040     0000170040     BISTURI C/SIST.SEGURANCA NR.18 DESC.                                                                23032017F000000500000000000000000000000000000000000000000000000000000000   UN  0000100000000000000PB.BRAUN             000017004020000000080080136990691       VIGENTE                    NN        ITBA818SU                                                                                             NN
0000170041     0000170041     BISTURI C/SIST.SEGURANCA NR.19 DESC.                                                                23032017F000000500000000000000000000000000000000000000000000000000000000   UN  0000100000000000000PB.BRAUN             000017004120000000080080136990691       VIGENTE                    NN        ITBA819SU                                                                                             NN
0000170042     0000170042     BISTURI C/SIST.SEGURANCA NR.20 DESC.                                                                23032017F000000500000000000000000000000000000000000000000000000000000000   UN  0000100000000000000PB.BRAUN             000017004220000000080080136990691       VIGENTE                    NN        ITBA820SU                                                                                             NN
0000170043     0000170043     BISTURI C/SIST.SEGURANCA NR.21 DESC.                                                                23032017F000000500000000000000000000000000000000000000000000000000000000   UN  0000100000000000000PB.BRAUN             000017004320000000080080136990691       VIGENTE                    NN        ITBA821SU                                                                                             NN
0000170044     0000170044     BISTURI C/SIST.SEGURANCA NR.22 DESC.                                                                23032017F000000500000000000000000000000000000000000000000000000000000000   UN  0000100000000000000PB.BRAUN             000017004420000000080080136990691       VIGENTE                    NN        ITBA822SU                                                                                             NN
0000170045     0000170045     BISTURI C/SIST.SEGURANCA NR.23 DESC.                                                                23032017F000000500000000000000000000000000000000000000000000000000000000   UN  0000100000000000000PB.BRAUN             000017004520000000080080136990691       VIGENTE                    NN        ITBA823SU                                                                                             NN
0000170046     0000170046     BISTURI C/SIST.SEGURANCA NR.24 DESC.                                                                23032017F000000500000000000000000000000000000000000000000000000000000000   UN  0000100000000000000PB.BRAUN             000017004620000000080080136990691       VIGENTE                    NN        ITBA824SU                                                                                             NN
0000170047     0000170047     BISTURI C/SIST.SEGURANCA NR.25 DESC.                                                                23032017F000000500000000000000000000000000000000000000000000000000000000   UN  0000100000000000000PB.BRAUN             000017004720000000080080136990691       VIGENTE                    NN        ITBA825SU                                                                                             NN
0000170037     0000170037     BISTURI C/SIST.SEGURANCA NR.36 DESC.                                                                23032017F000000500000000000000000000000000000000000000000000000000000000   UN  0000100000000000000PB.BRAUN             000017003720000000080080136990691       VIGENTE                    NN        ITBA836SU                                                                                             NN
0000251093     0000251093     BOLSA BAG EVA BAXTER(EQUIPO NUTRICAO PARENTERAL 0250ML 50UNID)                                      14102014F000007150000000000000000000000000000143000000000000000000000000CX UN  0005000000000000000ASISNACMED           000025109320000000000080569770001       VIGENTE      7894955078268 NS        MC309                                                                                                 NN
0000251094     0000251094     BOLSA BAG EVA BAXTER(EQUIPO NUTRICAO PARENTERAL 0500ML 50UNID)                                      14102014F000008650000000000000000000000000000173000000000000000000000000CX UN  0005000000000000000ASISNACMED           000025109420000000000080569770001       VIGENTE      7894955078275 NS        MC310                                                                                                 NN
0000251095     0000251095     BOLSA BAG EVA BAXTER(EQUIPO NUTRICAO PARENTERAL 1000ML 50UNID)                                      14102014F000008990000000000000000000000000000179800000000000000000000000CX UN  0005000000000000000ASISNACMED           000025109520000000000080569770001       VIGENTE      7894955078282 NS        MC311                                                                                                 NN
0000251096     0000251096     BOLSA BAG EVA BAXTER(EQUIPO NUTRICAO PARENTERAL 2000ML 50UNID)                                      14102014F000010900000000000000000000000000000218000000000000000000000000CX UN  0005000000000000000ASISNACMED           000025109620000000000080569770001       VIGENTE      7894955078299 NS        MC312                                                                                                 NN
0000251097     0000251097     BOLSA BAG EVA BAXTER(EQUIPO NUTRICAO PARENTERAL 3000ML 50UNID)                                      14102014F000012040000000000000000000000000000240800000000000000000000000CX UN  0005000000000000000ASISNACMED           000025109720000000000080569770001       VIGENTE      7894955078305 NS        MC313                                                                                                 NN
0000265659     0000265659     BOLSA COLOSTOMIA DREN.OPACA ACTIVE-LIFE PRE CORTADA FLEX.25MM 10UNID                                23032016F000004950000000000000000000000000000495000000000000000000000000CX UN  0001000000000000000ACONVATEC            000026565920000000000080523029009       VIGENTE                    NS        MC1197658                                                                                             NN
0000265660     0000265660     BOLSA COLOSTOMIA DREN.OPACA ACTIVE-LIFE PRE-CORTADA FLEX.32MM 10UNID                                23032016F000004950000000000000000000000000000495000000000000000000000000CX UN  0001000000000000000ACONVATEC            000026566020000000000080523029009       VIGENTE                    NS        MC1197902                                                                                             NN
0000265661     0000265661     BOLSA COLOSTOMIA DREN.OPACA ACTIVE-LIFE PRE-CORTADA FLEX.38MM 10UNID                                23032016F000004950000000000000000000000000000495000000000000000000000000CX UN  0001000000000000000ACONVATEC            000026566120000000000080523029009       VIGENTE                    NS        MC1197903                                                                                             NN
0000265662     0000265662     BOLSA COLOSTOMIA DREN.OPACA ACTIVE-LIFE PRE-CORTADA FLEX.45MM 10UNID                                23032016F000004950000000000000000000000000000495000000000000000000000000CX UN  0001000000000000000ACONVATEC            000026566220000000000080523029009       VIGENTE                    NS        MC1197904                                                                                             NN
0000265663     0000265663     BOLSA COLOSTOMIA DREN.OPACA ACTIVE-LIFE PRE-CORTADA FLEX.50MM 10UNID                                23032016F000004950000000000000000000000000000495000000000000000000000000CX UN  0001000000000000000ACONVATEC            000026566320000000000080523029009       VIGENTE                    NS        MC1197905                                                                                             NN
0000265664     0000265664     BOLSA COLOSTOMIA DREN.OPACA ACTIVE-LIFE PRE-CORTADA FLEX.64MM 10UNID                                23032016F000004950000000000000000000000000000495000000000000000000000000CX UN  0001000000000000000ACONVATEC            000026566420000000000080523029009       VIGENTE                    NS        MC1197906                                                                                             NN
0000265670     0000265670     BOLSA COLOSTOMIA DREN.OPACA ACTIVE-LIFE RECORTAVEL 19/64MM 10UNID                                   23032016F000004290000000000000000000000000000429000000000000000000000000CX UN  0001000000000000000ACONVATEC            000026567020000000000080523029009       VIGENTE                    NS        MC1150626                                                                                             NN
0000265654     0000265654     BOLSA COLOSTOMIA DREN.OPACA SUR-FIT PLUS 32MM 10UNID                                                23032016F000003850000000000000000000000000000385000000000000000000000000CX UN  0001000000000000000ACONVATEC            000026565420000000000080523029010       VIGENTE                    NS        MC1197859                                                                                             NN
0000265655     0000265655     BOLSA COLOSTOMIA DREN.OPACA SUR-FIT PLUS 38MM 10UNID                                                23032016F000003850000000000000000000000000000385000000000000000000000000CX UN  0001000000000000000ACONVATEC            000026565520000000000080523029010       VIGENTE                    NS70908869MC1197860                                                                                             NN
0000265656     0000265656     BOLSA COLOSTOMIA DREN.OPACA SUR-FIT PLUS 45MM 10UNID                                                23032016F000003850000000000000000000000000000385000000000000000000000000CX UN  0001000000000000000ACONVATEC            000026565620000000000080523029010       VIGENTE                    NS70908850MC1197861                                                                                             NN
0000265657     0000265657     BOLSA COLOSTOMIA DREN.OPACA SUR-FIT PLUS 57MM 10UNID                                                23032016F000003850000000000000000000000000000385000000000000000000000000CX UN  0001000000000000000ACONVATEC            000026565720000000000080523029010       VIGENTE                    NS        MC1197862                                                                                             NN
0000265658     0000265658     BOLSA COLOSTOMIA DREN.OPACA SUR-FIT PLUS 70MM 10UNID                                                23032016F000003850000000000000000000000000000385000000000000000000000000CX UN  0001000000000000000ACONVATEC            000026565820000000000080523029010       VIGENTE                    NS70908842MC1197863                                                                                             NN
0000265666     0000265666     BOLSA COLOSTOMIA DREN.PEDIATRICA TRANSP.SUR-FIT PLUS 32MM 10UNID                                    23032016F000003960000000000000000000000000000396000000000000000000000000CX UN  0001000000000000000ACONVATEC            000026566620000000000080523029010       VIGENTE                    NS        MC1197868                                                                                             NN
0000265668     0000265668     BOLSA COLOSTOMIA DREN.PEDIATRICA TRANSP.SUR-FIT PLUS 45MM 10UNID                                    23032016F000003960000000000000000000000000000396000000000000000000000000CX UN  0001000000000000000ACONVATEC            000026566820000000000080523029010       VIGENTE                    NS        MC1197869                                                                                             NN
0000265682     0000265682     BOLSA COLOSTOMIA DREN.TRANSP.PRE-CORTADA FLEXIVEL CONVEXA ACTIVE-LIFE 25MM 5UNID                    23032016F000007700000000000000000000000000001540000000000000000000000000CX UN  0000500000000000000ACONVATEC            000026568220000000000080523029009       VIGENTE                    NS        MC1197919                                                                                             NN
0000265684     0000265684     BOLSA COLOSTOMIA DREN.TRANSP.PRE-CORTADA FLEXIVEL CONVEXA ACTIVE-LIFE 28MM 05UNID                   23032016F000007700000000000000000000000000001540000000000000000000000000CX UN  0000500000000000000ACONVATEC            000026568420000000000080523029009       VIGENTE                    NS        MC1197920                                                                                             NN
0000265685     0000265685     BOLSA COLOSTOMIA DREN.TRANSP.PRE-CORTADA FLEXIVEL CONVEXA ACTIVE-LIFE 32MM 05UNID                   23032016F000007700000000000000000000000000001540000000000000000000000000CX UN  0000500000000000000ACONVATEC            000026568520000000000080523029009       VIGENTE                    NS        MC1197921                                                                                             NN
0000265681     0000265681     BOLSA COLOSTOMIA DREN.TRANSP.RECORTAVEL ACTIVE-LIFE 19/64MM 10UNID                                  23032016F000004290000000000000000000000000000429000000000000000000000000CX UN  0001000000000000000ACONVATEC            000026568120000000000080523029009       VIGENTE                    NS        MC1197912                                                                                             NN
0000265710     0000265710     BOLSA COLOSTOMIA ESTEEM PLUS OPACA RECORT.20 A 70MM 10UNID                                          23032016F000005225000000000000000000000000000522500000000000000000000000CX UN  0001000000000000000ACONVATEC            000026571020000000000080523020020       VIGENTE                    NS        MCBR10189                                                                                             NN
0000265711     0000265711     BOLSA COLOSTOMIA ESTEEM PLUS TRANSP.RECORT.20 A 70MM 10UNID                                         23032016F000005225000000000000000000000000000522500000000000000000000000CX UN  0001000000000000000ACONVATEC            000026571120000000000080523020020       VIGENTE                    NS        MCBR10188                                                                                             NN
0000265686     0000265686     BOLSA COLOSTOMIA FECH.OPACA PRE-CORTADA ACTIVE-LIFE 25MM 15UNID                                     23032016F000005500000000000000000000000000000366670000000000000000000000CX UN  0001500000000000000ACONVATEC            000026568620000000000080523029009       VIGENTE                    NS        MC1197914                                                                                             NN
0000265687     0000265687     BOLSA COLOSTOMIA FECH.OPACA PRE-CORTADA ACTIVE-LIFE 32MM 15UNID                                     23032016F000005500000000000000000000000000000366670000000000000000000000CX UN  0001500000000000000ACONVATEC            000026568720000000000080523029009       VIGENTE                    NS        MC1197915                                                                                             NN
0000265688     0000265688     BOLSA COLOSTOMIA FECH.OPACA PRE-CORTADA ACTIVE-LIFE 38MM 15UNID                                     23032016F000005500000000000000000000000000000366670000000000000000000000CX UN  0001500000000000000ACONVATEC            000026568820000000000080523029009       VIGENTE                    NS        MC1197916                                                                                             NN
0000265690     0000265690     BOLSA COLOSTOMIA FECH.OPACA PRE-CORTADA ACTIVE-LIFE 45MM 15UNID                                     23032016F000005500000000000000000000000000000366670000000000000000000000CX UN  0001500000000000000ACONVATEC            000026569020000000000080523029009       VIGENTE                    NS        MC1197917                                                                                             NN
0000265692     0000265692     BOLSA COLOSTOMIA FECH.OPACA PRE-CORTADA ACTIVE-LIFE 50MM 15UNID                                     23032016F000005500000000000000000000000000000366670000000000000000000000CX UN  0001500000000000000ACONVATEC            000026569220000000000080523029009       VIGENTE                    NS        MC1197918                                                                                             NN
0000265694     0000265694     BOLSA COLOSTOMIA FECH.OPACA RECORTAVEL ACTIVE-LIFE 19/64MM 30UNID                                   23032016F000011715000000000000000000000000000390500000000000000000000000CX UN  0003000000000000000ACONVATEC            000026569420000000000080523029009       VIGENTE                    NS70908800MC1117571                                                                                             NN
0000265696     0000265696     BOLSA COLOSTOMIA FECH.TRANSP.RECORTAVEL ACTIVE-LIFE 19/64MM 30UNID                                  23032016F000011715000000000000000000000000000390500000000000000000000000CX UN  0003000000000000000ACONVATEC            000026569620000000000080523029009       VIGENTE                    NS70908796MC1117572                                                                                             NN
0000256545     0000256545     BOLSA COLOSTOMIA KANGLI CARE 1PC RECORTAVEL C/FILTRO DRENAVEL TRANSP./OPACA 50MM                    16042015F000000582800000000000000000000000000000000000000000000000000000CX UN  0000100000000000000AVITA MEDICAL        000025654520000000000080691910005       VIGENTE                    NN        MC4005-B                                                                                              NN
0000256546     0000256546     BOLSA COLOSTOMIA KANGLI CARE 1PC RECORTAVEL C/FILTRO DRENAVEL TRANSP./OPACA 60MM                    16042015F000000582800000000000000000000000000000000000000000000000000000CX UN  0000100000000000000AVITA MEDICAL        000025654620000000000080691910005       VIGENTE                    NN        MC4006-B                                                                                              NN
0000256547     0000256547     BOLSA COLOSTOMIA KANGLI CARE 1PC RECORTAVEL C/FILTRO DRENAVEL TRANSP./OPACA 70MM                    16042015F000000582800000000000000000000000000000000000000000000000000000CX UN  0000100000000000000AVITA MEDICAL        000025654720000000000080691910005       VIGENTE                    NN        MC4012-B                                                                                              NN
0000256548     0000256548     BOLSA COLOSTOMIA KANGLI CARE 1PC RECORTAVEL C/FILTRO DRENAVEL TRANSP./OPACA 80MM                    16042015F000000582800000000000000000000000000000000000000000000000000000CX UN  0000100000000000000AVITA MEDICAL        000025654820000000000080691910005       VIGENTE                    NN        MC4014-B                                                                                              NN
0000256549     0000256549     BOLSA COLOSTOMIA KANGLI CARE 1PC RECORTAVEL C/FILTRO DRENAVEL TRANSP./OPACA/BORD TNT 50MM           16042015F000000561400000000000000000000000000000000000000000000000000000CX UN  0000100000000000000AVITA MEDICAL        000025654920000000000080691910005       VIGENTE                    NN        MC4008-B                                                                                              NN
0000256550     0000256550     BOLSA COLOSTOMIA KANGLI CARE 1PC RECORTAVEL C/FILTRO DRENAVEL TRANSP./OPACA/BORD TNT 60MM           16042015F000000561400000000000000000000000000000000000000000000000000000CX UN  0000100000000000000AVITA MEDICAL        000025655020000000000080691910005       VIGENTE                    NN        MC4009-B                                                                                              NN
0000256551     0000256551     BOLSA COLOSTOMIA KANGLI CARE 2PC DRENAVEL C/FILTRO TRANSP./OPACA 50MM                               16042015F000000334700000000000000000000000000000000000000000000000000000CX UN  0000100000000000000AVITA MEDICAL        000025655120000000000080691910003       VIGENTE                    NN        MC4012-C                                                                                              NN
0000256552     0000256552     BOLSA COLOSTOMIA KANGLI CARE 2PC DRENAVEL C/FILTRO TRANSP./OPACA 60MM                               16042015F000000334700000000000000000000000000000000000000000000000000000CX UN  0000100000000000000AVITA MEDICAL        000025655220000000000080691910003       VIGENTE                    NN        MC4014-C                                                                                              NN
0000256553     0000256553     BOLSA COLOSTOMIA KANGLI CARE 2PC DRENAVEL C/FILTRO TRANSP./OPACA 70MM                               16042015F000000334700000000000000000000000000000000000000000000000000000CX UN  0000100000000000000AVITA MEDICAL        000025655320000000000080691910003       VIGENTE                    NN        MC4021-B                                                                                              NN
0000256554     0000256554     BOLSA COLOSTOMIA KANGLI CARE 2PC DRENAVEL C/FILTRO TRANSP./OPACA 80MM                               16042015F000000334700000000000000000000000000000000000000000000000000000CX UN  0000100000000000000AVITA MEDICAL        000025655420000000000080691910003       VIGENTE                    NN        MC4022-B                                                                                              NN
0000265699     0000265699     BOLSA COLOSTOMIA PEDIATRICA ACTIVE LIFE C/CLIPS 08/50MM 15UNID                                      23032016F000009130000000000000000000000000000608670000000000000000000000CX UN  0001500000000000000ACONVATEC            000026569920000000000080523029009       VIGENTE                    NS70908788MC1197898                                                                                             NN
0000259630     0000259630     BOLSA P/COLOSTOMIA FLEXIMA 3S COLO MAXI BEGE 45MM 30UNID                                            04082015F000009900000000000000000000000000000330000000000000000000000000CX UN  0003000000000000000AB.BRAUN             000025963020000000000080136990786       VIGENTE      4046964595530 NS        MC931445BR                                                                                            NN
